:100000000C942A000C9447000C9447000C94470071
:100010000C9447000C9447000C9447000C94470044
:100020000C9447000C9447000C9447000C94470034
:100030000C9447000C945D010C9447000C9447000D
:100040000C9447000C9447000C9447000C94470014
:100050000C94470011241FBECFE5D8E0DEBFCDBF12
:1000600010E0A0E6B0E0E0EEFBE002C005900D92EB
:10007000A436B107D9F711E0A4E6B0E001C01D92A3
:10008000A239B107E1F70E94BD010C94EE050C9472
:1000900000009C0140E050E0CA01B90160587B4774
:1000A000814E9F4FF3E0660F771F881F991FFA95C7
:1000B000D1F7E4E0220F331F441F551FEA95D1F713
:1000C0000E94C604215030408FEF809365008091DC
:1000D00065008093640030BD29B986E880BD88E959
:1000E0008AB978940895EF92FF920F931F93262F69
:1000F0007C0100E010E030E040E050E0CA01B901CE
:1001000028E438EE41E050E00E94A7046E0D7F1D08
:10011000801F911FB3E0660F771F881F991FBA9544
:10012000D1F7A4E0EE0CFF1C001F111FAA95D1F718
:10013000A80197010E94E804215030408FEF80937E
:100140006500809165008093640030BD29B986E820
:1001500080BD88E98AB978941F910F91FF90EF9044
:100160000895809164008F3F11F4E0E01DC0E0919C
:100170006400FF27E7FDF095EA59FF4FE081909179
:10018000640080916500981741F48FEF80936500BB
:10019000809165008093640007C0809164008F5F48
:1001A00080936400809164008E2F08955D9BFECF44
:1001B0008CB90895FC0104C05D9BFECF8CB93196CB
:1001C00080818823C9F7089503C05D9BFECF2CB9B9
:1001D000FC01019624912223C1F70895EF92FF922A
:1001E0000F931F93CF93DF937C018B01C0E0D0E08E
:1001F00007C00E94B100F701EC0FFD1F808321961C
:10020000C017D107B0F3DF91CF911F910F91FF90ED
:10021000EF900895809164008F3F11F490E01AC030
:100220009091640080916500981734F49091650076
:10023000809164009F5F0DC0909164008091650083
:10024000891714F091E006C09091650080916400D8
:10025000935D981B892F089502C00E94B1000E94EF
:100260000A018823D1F708951F93CF93DF93EC0100
:10027000162F0E940A018117E0F3CE01612F70E072
:100280000E94EE0081E0DF91CF911F9108951F93AE
:10029000CF93DF93EC01162F0E940A01811738F0EB
:1002A000CE01612F70E00E94EE0081E002C0188252
:1002B00080E0DF91CF911F9108951F920F920FB6AA
:1002C0000F9211242F933F934F938F939F93EF930C
:1002D000FF934CB18091650080916500209164008E
:1002E000992787FD90950196332727FD3095821732
:1002F000930739F4809164008F5F8093640080914C
:10030000640080916500809165008F5F8093650037
:10031000E0916500FF27E7FDF095EA59FF4F408324
:10032000809164008F3F11F410926400FF91EF916F
:100330009F918F914F913F912F910F900FBE0F90F2
:100340001F90189580E090E0FC01EA59FF4F108261
:10035000019680389105C1F7089517B887E886B9E6
:10036000089597B18770987F892B87B9369A369907
:10037000FECF24B135B1C901089580E895E20E940D
:10038000490081E090E00E9434040E94B100813471
:1003900079F484E090E064E070E041E050E00E9495
:1003A000F70284E090E065E070E040E050E021C0BA
:1003B000823479F484E090E064E070E040E050E062
:1003C0000E94F70284E090E065E070E041E050E0D8
:1003D00029C08334B9F484E090E064E070E040E048
:1003E00050E00E94F70284E090E065E070E041E0B8
:1003F00050E00E94F70284E090E066E070E041E0A7
:1004000050E03AC08434F9F484E090E064E070E0B5
:1004100041E050E00E94F70284E090E065E070E087
:1004200040E050E00E94F70284E090E066E070E077
:1004300040E050E00E94F70284E090E067E070E066
:1004400041E050E021C0853409F09FCF84E090E086
:1004500064E070E040E050E00E94F70284E090E049
:1004600065E070E040E050E00E94F70284E090E038
:1004700066E070E040E050E00E94F70284E090E027
:1004800067E070E040E050E00E94F7027ECF0F93FB
:100490001F93DF93CF93CDB7DEB727970FB6F894AE
:1004A000DEBF0FBECDBF8E010F5F1F4FB8014AE008
:1004B00050E00E946D05C8010E94DA0027960FB631
:1004C000F894DEBF0FBECDBFCF91DF911F910F918A
:1004D00008950F931F93DF93CF93CDB7DEB7279780
:1004E0000FB6F894DEBF0FBECDBF8E010F5F1F4F5A
:1004F000A8012AE030E00E948E05C8010E94DA00BF
:1005000027960FB6F894DEBF0FBECDBFCF91DF9117
:100510001F910F9108958230F9F0833018F48130E3
:1005200031F407C0833059F1843009F442C080E0CF
:100530000895693019F41ABA89B308958AB321E08D
:1005400030E0062E02C0220F331F0A94E2F72095F6
:1005500028232ABB89B325C0693019F417BA86B39A
:10056000089587B321E030E0062E02C0220F331F2A
:100570000A94E2F72095282327BB86B312C069307E
:1005800019F414BA83B3089584B321E030E0062E41
:1005900002C0220F331F0A94E2F72095282324BBC0
:1005A00083B390E002C0959587956A95E2F78170D4
:1005B0000895693019F411BA80B3089531B381E018
:1005C00090E0062E02C0880F991F0A94E2F7282FA8
:1005D0002095232321BB22B3822B82BB80B390E0E2
:1005E00002C0959587956A95E2F7817008958230EB
:1005F00009F441C0833020F4813009F0D7C007C02E
:10060000833009F46CC0843009F0D0C09CC06B35D5
:1006100021F48FEF8ABB4BBB0895442321F0413076
:1006200009F0C4C014C0693021F48FEF8ABB1BBA33
:1006300008958AB321E030E002C0220F331F6A958B
:10064000E2F7822B8ABB8BB32095282312C0693036
:1006500021F48FEF8ABB8BBB08958AB321E030E091
:1006600002C0220F331F6A95E2F7822B8ABB8BB33D
:10067000282B2BBB08956B3521F48FEF87BB48BB2C
:100680000895442321F0413009F090C014C069302E
:1006900021F48FEF87BB18BA089587B321E030E0CB
:1006A00002C0220F331F6A95E2F7822B87BB88B303
:1006B0002095282312C0693021F48FEF87BB88BBB7
:1006C000089587B321E030E002C0220F331F6A95FE
:1006D000E2F7822B87BB88B3282B28BB08956B35A4
:1006E00021F48FEF84BB45BB0895442321F04130B2
:1006F00009F05CC014C0693021F48FEF84BB15BAD7
:10070000089584B321E030E002C0220F331F6A95C0
:10071000E2F7822B84BB85B32095282312C0693071
:1007200021F48FEF84BB85BB089584B321E030E0D2
:1007300002C0220F331F6A95E2F7822B84BB85B378
:10074000282B25BB08956B3521F48FEF81BB42BB6D
:100750000895442319F0413049F515C0693021F45A
:100760008FEF81BB12BA089581B321E030E002C05F
:10077000220F331F6A95E2F7822B81BB82B320954B
:10078000282322BB0895693021F48FEF81BB82BBFF
:10079000089581B321E030E002C0220F331F6A9533
:1007A000E2F7822B81BB82B3282B22BB08958330D2
:1007B00019F1843009F43CC0823009F054C044235C
:1007C00021F0413009F04FC00CC027B381E090E028
:1007D00002C0880F991F6A95E2F78095822387BB34
:1007E000089527B381E090E002C0880F991F6A95B1
:1007F000E2F7282B27BB0895442319F0413099F5DF
:100800000CC024B381E090E002C0880F991F6A9564
:10081000E2F78095822384BB089524B381E090E0C1
:1008200002C0880F991F6A95E2F7282B24BB089510
:10083000442319F04130B9F40CC021B381E090E0B9
:1008400002C0880F991F6A95E2F78095822381BBC9
:10085000089521B381E090E002C0880F991F6A9546
:10086000E2F7282B21BB0895882321F481E067E07B
:1008700040E004C0813041F467E041E00E94F702AB
:1008800083E062E040E00AC0823059F481E067E032
:1008900040E00E94F70283E062E041E00E94F7023C
:1008A0000895833051F481E067E041E00E94F7024F
:1008B00083E062E041E00E94F7020895EF92FF9228
:1008C0000F931F93CF93DF93EA010E945305009784
:1008D00019F420E030E01DC0019660E670E00E944F
:1008E00053057C0183E090E0E80EF91EC70162E247
:1008F00070E00E9421058C010E191F09CE01B7017D
:10090000A8010E9444050C0F1D1FF801108221E070
:1009100030E0C901DF91CF911F910F91FF90EF90CF
:100920000895DB010D900020E9F71197A61BB70B86
:100930004A2F50E00E942C0520E030E0892B11F472
:1009400021E030E0C90108950E9403050895629FE7
:10095000D001739FF001829FE00DF11D649FE00DB7
:10096000F11D929FF00D839FF00D749FF00D659F18
:10097000F00D9927729FB00DE11DF91F639FB00D17
:10098000E11DF91FBD01CF0111240895A1E21A2E26
:10099000AA1BBB1BFD010DC0AA1FBB1FEE1FFF1F23
:1009A000A217B307E407F50720F0A21BB30BE40B73
:1009B000F50B661F771F881F991F1A9469F76095BA
:1009C0007095809590959B01AC01BD01CF01089574
:1009D00097FB092E05260ED057FD04D0D7DF0AD08D
:1009E000001C38F450954095309521953F4F4F4F5E
:1009F0005F4F0895F6F790958095709561957F4FBC
:100A00008F4F9F4F0895FC0188279927E8942191E3
:100A10002032E9F3293010F02E30C8F32B3241F0A8
:100A20002D3239F4689404C00E94C205820F911DD2
:100A3000219120532A30C0F31EF4909581959F4F49
:100A40000895FC018191861721F08823D9F7992711
:100A500008953197CF010895FB01DC0141505040CA
:100A600088F08D9181341CF08B350CF4805E61919F
:100A700061341CF06B350CF4605E861B611171F300
:100A8000990B0895881BFCCFFB01DC0141505040BD
:100A900048F001900D920020C9F701C01D9241500D
:100AA0005040E0F70895FB0151915523A9F0BF0193
:100AB000DC014D9145174111E1F759F4CD01019049
:100AC000002049F04D9140154111C9F3FB0141113E
:100AD000EFCF81E090E001970895FB019F01E8943A
:100AE0004230C4F04532B4F44A3029F497FB1EF486
:100AF000909581959F4F642F77270E94DA05805D3E
:100B00008A330CF0895D8193CB010097A1F716F42D
:100B10005DE251931082C9010C94CA05FA01CF938A
:100B2000FF93EF93223044F1253234F5C22FE8943D
:100B3000CA3049F497FB3EF4909580957095619585
:100B40007F4F8F4F9F4F2C2F332744275527FF93DD
:100B5000EF930E94C604EF91FF91605D6A330CF041
:100B6000695D6193B901CA01605070408040904056
:100B700051F716F4CDE2C19310828F919F91CF91DE
:100B80000C94CA057AE0979F902D879F802D910D38
:100B900011240895DC01FC01672F71917723E1F79F
:100BA000329704C07C916D9370836291AE17BF073A
:100BB000C8F30895AA1BBB1B51E107C0AA1FBB1FA6
:100BC000A617B70710F0A61BB70B881F991F5A95D9
:100BD000A9F780959095BC01CD010895F894FFCFB9
:040BE000223A0000B5
:00000001FF
